{
  "_format": "hh-sol-artifact-1",
  "contractName": "BrazyNFT",
  "sourceName": "contracts/BrazyNFT.sol",
  "abi": [
    {
      "inputs": [],
      "stateMutability": "nonpayable",
      "type": "constructor"
    },
    {
      "anonymous": false,
      "inputs": [
        {
          "indexed": true,
          "internalType": "address",
          "name": "owner",
          "type": "address"
        },
        {
          "indexed": true,
          "internalType": "address",
          "name": "approved",
          "type": "address"
        },
        {
          "indexed": true,
          "internalType": "uint256",
          "name": "tokenId",
          "type": "uint256"
        }
      ],
      "name": "Approval",
      "type": "event"
    },
    {
      "anonymous": false,
      "inputs": [
        {
          "indexed": true,
          "internalType": "address",
          "name": "owner",
          "type": "address"
        },
        {
          "indexed": true,
          "internalType": "address",
          "name": "operator",
          "type": "address"
        },
        {
          "indexed": false,
          "internalType": "bool",
          "name": "approved",
          "type": "bool"
        }
      ],
      "name": "ApprovalForAll",
      "type": "event"
    },
    {
      "anonymous": false,
      "inputs": [
        {
          "indexed": false,
          "internalType": "address",
          "name": "sender",
          "type": "address"
        },
        {
          "indexed": false,
          "internalType": "uint256",
          "name": "tokenId",
          "type": "uint256"
        }
      ],
      "name": "NewEpicNFTMinted",
      "type": "event"
    },
    {
      "anonymous": false,
      "inputs": [
        {
          "indexed": true,
          "internalType": "address",
          "name": "from",
          "type": "address"
        },
        {
          "indexed": true,
          "internalType": "address",
          "name": "to",
          "type": "address"
        },
        {
          "indexed": true,
          "internalType": "uint256",
          "name": "tokenId",
          "type": "uint256"
        }
      ],
      "name": "Transfer",
      "type": "event"
    },
    {
      "inputs": [
        {
          "internalType": "uint256",
          "name": "i",
          "type": "uint256"
        }
      ],
      "name": "addAddressToArray",
      "outputs": [],
      "stateMutability": "nonpayable",
      "type": "function"
    },
    {
      "inputs": [
        {
          "internalType": "address",
          "name": "to",
          "type": "address"
        },
        {
          "internalType": "uint256",
          "name": "tokenId",
          "type": "uint256"
        }
      ],
      "name": "approve",
      "outputs": [],
      "stateMutability": "nonpayable",
      "type": "function"
    },
    {
      "inputs": [
        {
          "internalType": "uint256",
          "name": "",
          "type": "uint256"
        }
      ],
      "name": "arr",
      "outputs": [
        {
          "internalType": "uint256",
          "name": "",
          "type": "uint256"
        }
      ],
      "stateMutability": "view",
      "type": "function"
    },
    {
      "inputs": [
        {
          "internalType": "address",
          "name": "owner",
          "type": "address"
        }
      ],
      "name": "balanceOf",
      "outputs": [
        {
          "internalType": "uint256",
          "name": "",
          "type": "uint256"
        }
      ],
      "stateMutability": "view",
      "type": "function"
    },
    {
      "inputs": [
        {
          "internalType": "uint256",
          "name": "tokenId",
          "type": "uint256"
        }
      ],
      "name": "getApproved",
      "outputs": [
        {
          "internalType": "address",
          "name": "",
          "type": "address"
        }
      ],
      "stateMutability": "view",
      "type": "function"
    },
    {
      "inputs": [
        {
          "internalType": "address",
          "name": "owner",
          "type": "address"
        },
        {
          "internalType": "address",
          "name": "operator",
          "type": "address"
        }
      ],
      "name": "isApprovedForAll",
      "outputs": [
        {
          "internalType": "bool",
          "name": "",
          "type": "bool"
        }
      ],
      "stateMutability": "view",
      "type": "function"
    },
    {
      "inputs": [],
      "name": "makeABrazyNFT",
      "outputs": [],
      "stateMutability": "nonpayable",
      "type": "function"
    },
    {
      "inputs": [],
      "name": "name",
      "outputs": [
        {
          "internalType": "string",
          "name": "",
          "type": "string"
        }
      ],
      "stateMutability": "view",
      "type": "function"
    },
    {
      "inputs": [
        {
          "internalType": "uint256",
          "name": "tokenId",
          "type": "uint256"
        }
      ],
      "name": "ownerOf",
      "outputs": [
        {
          "internalType": "address",
          "name": "",
          "type": "address"
        }
      ],
      "stateMutability": "view",
      "type": "function"
    },
    {
      "inputs": [
        {
          "internalType": "uint256",
          "name": "tokenId",
          "type": "uint256"
        }
      ],
      "name": "pickRandomFirstWord",
      "outputs": [
        {
          "internalType": "string",
          "name": "",
          "type": "string"
        }
      ],
      "stateMutability": "view",
      "type": "function"
    },
    {
      "inputs": [
        {
          "internalType": "uint256",
          "name": "tokenId",
          "type": "uint256"
        }
      ],
      "name": "pickRandomSecondWord",
      "outputs": [
        {
          "internalType": "string",
          "name": "",
          "type": "string"
        }
      ],
      "stateMutability": "view",
      "type": "function"
    },
    {
      "inputs": [
        {
          "internalType": "uint256",
          "name": "tokenId",
          "type": "uint256"
        }
      ],
      "name": "pickRandomThirdWord",
      "outputs": [
        {
          "internalType": "string",
          "name": "",
          "type": "string"
        }
      ],
      "stateMutability": "view",
      "type": "function"
    },
    {
      "inputs": [
        {
          "internalType": "address",
          "name": "from",
          "type": "address"
        },
        {
          "internalType": "address",
          "name": "to",
          "type": "address"
        },
        {
          "internalType": "uint256",
          "name": "tokenId",
          "type": "uint256"
        }
      ],
      "name": "safeTransferFrom",
      "outputs": [],
      "stateMutability": "nonpayable",
      "type": "function"
    },
    {
      "inputs": [
        {
          "internalType": "address",
          "name": "from",
          "type": "address"
        },
        {
          "internalType": "address",
          "name": "to",
          "type": "address"
        },
        {
          "internalType": "uint256",
          "name": "tokenId",
          "type": "uint256"
        },
        {
          "internalType": "bytes",
          "name": "_data",
          "type": "bytes"
        }
      ],
      "name": "safeTransferFrom",
      "outputs": [],
      "stateMutability": "nonpayable",
      "type": "function"
    },
    {
      "inputs": [
        {
          "internalType": "address",
          "name": "operator",
          "type": "address"
        },
        {
          "internalType": "bool",
          "name": "approved",
          "type": "bool"
        }
      ],
      "name": "setApprovalForAll",
      "outputs": [],
      "stateMutability": "nonpayable",
      "type": "function"
    },
    {
      "inputs": [
        {
          "internalType": "bytes4",
          "name": "interfaceId",
          "type": "bytes4"
        }
      ],
      "name": "supportsInterface",
      "outputs": [
        {
          "internalType": "bool",
          "name": "",
          "type": "bool"
        }
      ],
      "stateMutability": "view",
      "type": "function"
    },
    {
      "inputs": [],
      "name": "symbol",
      "outputs": [
        {
          "internalType": "string",
          "name": "",
          "type": "string"
        }
      ],
      "stateMutability": "view",
      "type": "function"
    },
    {
      "inputs": [
        {
          "internalType": "uint256",
          "name": "tokenId",
          "type": "uint256"
        }
      ],
      "name": "tokenURI",
      "outputs": [
        {
          "internalType": "string",
          "name": "",
          "type": "string"
        }
      ],
      "stateMutability": "view",
      "type": "function"
    },
    {
      "inputs": [
        {
          "internalType": "address",
          "name": "from",
          "type": "address"
        },
        {
          "internalType": "address",
          "name": "to",
          "type": "address"
        },
        {
          "internalType": "uint256",
          "name": "tokenId",
          "type": "uint256"
        }
      ],
      "name": "transferFrom",
      "outputs": [],
      "stateMutability": "nonpayable",
      "type": "function"
    }
  ],
  "bytecode": "0x608060405260405180610120016040528060fd81526020016200456360fd913960099080519060200190620000369291906200067c565b506040518060c001604052806040518060400160405280600681526020017f4e617275746f000000000000000000000000000000000000000000000000000081525081526020016040518060400160405280600781526020017f4b616b617368690000000000000000000000000000000000000000000000000081525081526020016040518060400160405280600781526020017f536f746f676c6f0000000000000000000000000000000000000000000000000081525081526020016040518060400160405280600481526020017f42696a750000000000000000000000000000000000000000000000000000000081525081526020016040518060400160405280600881526020017f54656e5461696c7300000000000000000000000000000000000000000000000081525081526020016040518060400160405280600881526020017f536561686f727365000000000000000000000000000000000000000000000000815250815250600a906006620001b49291906200070d565b506040518060c001604052806040518060400160405280600781526020017f5368616d7572690000000000000000000000000000000000000000000000000081525081526020016040518060400160405280600481526020017f53616e640000000000000000000000000000000000000000000000000000000081525081526020016040518060400160405280600481526020017f446176650000000000000000000000000000000000000000000000000000000081525081526020016040518060400160405280600681526020017f395461696c73000000000000000000000000000000000000000000000000000081525081526020016040518060400160405280600681526020017f385461696c73000000000000000000000000000000000000000000000000000081525081526020016040518060400160405280600381526020017f5754460000000000000000000000000000000000000000000000000000000000815250815250600b906006620003329291906200070d565b506040518060c001604052806040518060400160405280600881526020017f52656e696767616e00000000000000000000000000000000000000000000000081525081526020016040518060400160405280600481526020017f476f6b750000000000000000000000000000000000000000000000000000000081525081526020016040518060400160405280600681526020017f566567657461000000000000000000000000000000000000000000000000000081525081526020016040518060400160405280600781526020017f536173756c72690000000000000000000000000000000000000000000000000081525081526020016040518060400160405280600881526020017f4269616b7567616e00000000000000000000000000000000000000000000000081525081526020016040518060400160405280600881526020017f426c756545796573000000000000000000000000000000000000000000000000815250815250600c906006620004b09291906200070d565b50348015620004be57600080fd5b506040518060400160405280600681526020017f434f574e465400000000000000000000000000000000000000000000000000008152506040518060400160405280600581526020017f4d4f4f4f4f0000000000000000000000000000000000000000000000000000008152508160009080519060200190620005439291906200067c565b5080600190805190602001906200055c9291906200067c565b505050620005aa6040518060400160405280601881526020017f48656c6c6f2066726f6d20736d61727420636f6e746163740000000000000000815250620005b060201b6200127a1760201c565b6200092e565b6200065081604051602401620005c7919062000842565b6040516020818303038152906040527f41304fac000000000000000000000000000000000000000000000000000000007bffffffffffffffffffffffffffffffffffffffffffffffffffffffff19166020820180517bffffffffffffffffffffffffffffffffffffffffffffffffffffffff83818316178352505050506200065360201b60201c565b50565b60008151905060006a636f6e736f6c652e6c6f679050602083016000808483855afa5050505050565b8280546200068a90620008b8565b90600052602060002090601f016020900481019282620006ae5760008555620006fa565b82601f10620006c957805160ff1916838001178555620006fa565b82800160010185558215620006fa579182015b82811115620006f9578251825591602001919060010190620006dc565b5b50905062000709919062000774565b5090565b82805482825590600052602060002090810192821562000761579160200282015b82811115620007605782518290805190602001906200074f9291906200067c565b50916020019190600101906200072e565b5b50905062000770919062000793565b5090565b5b808211156200078f57600081600090555060010162000775565b5090565b5b80821115620007b75760008181620007ad9190620007bb565b5060010162000794565b5090565b508054620007c990620008b8565b6000825580601f10620007dd5750620007fe565b601f016020900490600052602060002090810190620007fd919062000774565b5b50565b60006200080e8262000866565b6200081a818562000871565b93506200082c81856020860162000882565b62000837816200091d565b840191505092915050565b600060208201905081810360008301526200085e818462000801565b905092915050565b600081519050919050565b600082825260208201905092915050565b60005b83811015620008a257808201518184015260208101905062000885565b83811115620008b2576000848401525b50505050565b60006002820490506001821680620008d157607f821691505b60208210811415620008e857620008e7620008ee565b5b50919050565b7f4e487b7100000000000000000000000000000000000000000000000000000000600052602260045260246000fd5b6000601f19601f8301169050919050565b613c25806200093e6000396000f3fe608060405234801561001057600080fd5b50600436106101215760003560e01c80636352211e116100ad578063b187301f11610071578063b187301f14610318578063b88d4fde14610348578063c575757a14610364578063c87b56dd14610394578063e985e9c5146103c457610121565b80636352211e1461024e57806370a082311461027e57806371e5ee5f146102ae57806395d89b41146102de578063a22cb465146102fc57610121565b806323b872dd116100f457806323b872dd146101c05780632de38d68146101dc57806342842e0e1461020c578063565193af146102285780635754ba491461024457610121565b806301ffc9a71461012657806306fdde0314610156578063081812fc14610174578063095ea7b3146101a4575b600080fd5b610140600480360381019061013b91906127b2565b6103f4565b60405161014d9190613414565b60405180910390f35b61015e6104d6565b60405161016b919061342f565b60405180910390f35b61018e60048036038101906101899190612804565b610568565b60405161019b9190613384565b60405180910390f35b6101be60048036038101906101b99190612776565b6105ed565b005b6101da60048036038101906101d59190612670565b610705565b005b6101f660048036038101906101f19190612804565b610765565b604051610203919061342f565b60405180910390f35b61022660048036038101906102219190612670565b610883565b005b610242600480360381019061023d9190612804565b6108a3565b005b61024c6108cf565b005b61026860048036038101906102639190612804565b610bc0565b6040516102759190613384565b60405180910390f35b6102986004803603810190610293919061260b565b610c72565b6040516102a59190613716565b60405180910390f35b6102c860048036038101906102c39190612804565b610d2a565b6040516102d59190613716565b60405180910390f35b6102e6610d4e565b6040516102f3919061342f565b60405180910390f35b6103166004803603810190610311919061273a565b610de0565b005b610332600480360381019061032d9190612804565b610df6565b60405161033f919061342f565b60405180910390f35b610362600480360381019061035d91906126bf565b610f14565b005b61037e60048036038101906103799190612804565b610f76565b60405161038b919061342f565b60405180910390f35b6103ae60048036038101906103a99190612804565b611094565b6040516103bb919061342f565b60405180910390f35b6103de60048036038101906103d99190612634565b6111e6565b6040516103eb9190613414565b60405180910390f35b60007f80ac58cd000000000000000000000000000000000000000000000000000000007bffffffffffffffffffffffffffffffffffffffffffffffffffffffff1916827bffffffffffffffffffffffffffffffffffffffffffffffffffffffff191614806104bf57507f5b5e139f000000000000000000000000000000000000000000000000000000007bffffffffffffffffffffffffffffffffffffffffffffffffffffffff1916827bffffffffffffffffffffffffffffffffffffffffffffffffffffffff1916145b806104cf57506104ce82611313565b5b9050919050565b6060600080546104e5906139b5565b80601f0160208091040260200160405190810160405280929190818152602001828054610511906139b5565b801561055e5780601f106105335761010080835404028352916020019161055e565b820191906000526020600020905b81548152906001019060200180831161054157829003601f168201915b5050505050905090565b60006105738261137d565b6105b2576040517f08c379a00000000000000000000000000000000000000000000000000000000081526004016105a990613676565b60405180910390fd5b6004600083815260200190815260200160002060009054906101000a900473ffffffffffffffffffffffffffffffffffffffff169050919050565b60006105f882610bc0565b90508073ffffffffffffffffffffffffffffffffffffffff168373ffffffffffffffffffffffffffffffffffffffff161415610669576040517f08c379a0000000000000000000000000000000000000000000000000000000008152600401610660906136d6565b60405180910390fd5b8073ffffffffffffffffffffffffffffffffffffffff166106886113e9565b73ffffffffffffffffffffffffffffffffffffffff1614806106b757506106b6816106b16113e9565b6111e6565b5b6106f6576040517f08c379a00000000000000000000000000000000000000000000000000000000081526004016106ed90613596565b60405180910390fd5b61070083836113f1565b505050565b6107166107106113e9565b826114aa565b610755576040517f08c379a000000000000000000000000000000000000000000000000000000000815260040161074c906136f6565b60405180910390fd5b610760838383611588565b505050565b60606000610799610775846117e4565b6040516020016107859190613340565b604051602081830303815290604052611991565b9050600a80549050816107ac9190613a30565b9050600a81815481106107e8577f4e487b7100000000000000000000000000000000000000000000000000000000600052603260045260246000fd5b9060005260206000200180546107fd906139b5565b80601f0160208091040260200160405190810160405280929190818152602001828054610829906139b5565b80156108765780601f1061084b57610100808354040283529160200191610876565b820191906000526020600020905b81548152906001019060200180831161085957829003601f168201915b5050505050915050919050565b61089e83838360405180602001604052806000815250610f14565b505050565b600881908060018154018082558091505060019003906000526020600020016000909190919091505550565b601d60088054905010610917576040517f08c379a000000000000000000000000000000000000000000000000000000000815260040161090e90613616565b60405180910390fd5b600061092360076119c4565b90506109646040518060400160405280600a81526020017f6e6577206974656d3a2000000000000000000000000000000000000000000000815250826119d2565b6109a86040518060400160405280600c81526020017f617272206c656e6774683a2000000000000000000000000000000000000000008152506008805490506119d2565b60006109b382610765565b905060006109c083610df6565b905060006109cd84610f76565b905060008383836040516020016109e693929190613257565b60405160208183030381529060405290506000600982604051602001610a0d929190613288565b60405160208183030381529060405290506000610a5283610a2d84611a6e565b604051602001610a3e9291906132fb565b604051602081830303815290604052611a6e565b9050600081604051602001610a679190613362565b6040516020818303038152906040529050610ab66040518060400160405280601381526020017f6e2d2d2d2d2d2d2d2d2d2d2d2d2d2d2d2d2d2d0000000000000000000000000081525061127a565b610af56040518060400160405280600e81526020017f66696e616c546f6b656e5572693a00000000000000000000000000000000000081525082611c2c565b610b336040518060400160405280601481526020017f2d2d2d2d2d2d2d2d2d2d2d2d2d2d2d2d2d2d2d0a00000000000000000000000081525061127a565b610b3d3389611cc8565b610b478882611ce6565b610b516007611d5a565b610b74604051806060016040528060258152602001613b8b602591398933611d70565b610b7d886108a3565b7febb98688741ffa4c7589bf325de30cf7becb63de567842e1ccdb6cb949fdc82c3389604051610bae9291906133eb565b60405180910390a15050505050505050565b6000806002600084815260200190815260200160002060009054906101000a900473ffffffffffffffffffffffffffffffffffffffff169050600073ffffffffffffffffffffffffffffffffffffffff168173ffffffffffffffffffffffffffffffffffffffff161415610c69576040517f08c379a0000000000000000000000000000000000000000000000000000000008152600401610c60906135d6565b60405180910390fd5b80915050919050565b60008073ffffffffffffffffffffffffffffffffffffffff168273ffffffffffffffffffffffffffffffffffffffff161415610ce3576040517f08c379a0000000000000000000000000000000000000000000000000000000008152600401610cda906135b6565b60405180910390fd5b600360008373ffffffffffffffffffffffffffffffffffffffff1673ffffffffffffffffffffffffffffffffffffffff168152602001908152602001600020549050919050565b60088181548110610d3a57600080fd5b906000526020600020016000915090505481565b606060018054610d5d906139b5565b80601f0160208091040260200160405190810160405280929190818152602001828054610d89906139b5565b8015610dd65780601f10610dab57610100808354040283529160200191610dd6565b820191906000526020600020905b815481529060010190602001808311610db957829003601f168201915b5050505050905090565b610df2610deb6113e9565b8383611e0f565b5050565b60606000610e2a610e06846117e4565b604051602001610e1691906132d9565b604051602081830303815290604052611991565b9050600b8054905081610e3d9190613a30565b9050600b8181548110610e79577f4e487b7100000000000000000000000000000000000000000000000000000000600052603260045260246000fd5b906000526020600020018054610e8e906139b5565b80601f0160208091040260200160405190810160405280929190818152602001828054610eba906139b5565b8015610f075780601f10610edc57610100808354040283529160200191610f07565b820191906000526020600020905b815481529060010190602001808311610eea57829003601f168201915b5050505050915050919050565b610f25610f1f6113e9565b836114aa565b610f64576040517f08c379a0000000000000000000000000000000000000000000000000000000008152600401610f5b906136f6565b60405180910390fd5b610f7084848484611f7c565b50505050565b60606000610faa610f86846117e4565b604051602001610f9691906132b7565b604051602081830303815290604052611991565b9050600c8054905081610fbd9190613a30565b9050600c8181548110610ff9577f4e487b7100000000000000000000000000000000000000000000000000000000600052603260045260246000fd5b90600052602060002001805461100e906139b5565b80601f016020809104026020016040519081016040528092919081815260200182805461103a906139b5565b80156110875780601f1061105c57610100808354040283529160200191611087565b820191906000526020600020905b81548152906001019060200180831161106a57829003601f168201915b5050505050915050919050565b606061109f8261137d565b6110de576040517f08c379a00000000000000000000000000000000000000000000000000000000081526004016110d590613656565b60405180910390fd5b60006006600084815260200190815260200160002080546110fe906139b5565b80601f016020809104026020016040519081016040528092919081815260200182805461112a906139b5565b80156111775780601f1061114c57610100808354040283529160200191611177565b820191906000526020600020905b81548152906001019060200180831161115a57829003601f168201915b505050505090506000611188611fd8565b905060008151141561119e5781925050506111e1565b6000825111156111d35780826040516020016111bb929190613233565b604051602081830303815290604052925050506111e1565b6111dc84611fef565b925050505b919050565b6000600560008473ffffffffffffffffffffffffffffffffffffffff1673ffffffffffffffffffffffffffffffffffffffff16815260200190815260200160002060008373ffffffffffffffffffffffffffffffffffffffff1673ffffffffffffffffffffffffffffffffffffffff16815260200190815260200160002060009054906101000a900460ff16905092915050565b6113108160405160240161128e919061342f565b6040516020818303038152906040527f41304fac000000000000000000000000000000000000000000000000000000007bffffffffffffffffffffffffffffffffffffffffffffffffffffffff19166020820180517bffffffffffffffffffffffffffffffffffffffffffffffffffffffff8381831617835250505050612096565b50565b60007f01ffc9a7000000000000000000000000000000000000000000000000000000007bffffffffffffffffffffffffffffffffffffffffffffffffffffffff1916827bffffffffffffffffffffffffffffffffffffffffffffffffffffffff1916149050919050565b60008073ffffffffffffffffffffffffffffffffffffffff166002600084815260200190815260200160002060009054906101000a900473ffffffffffffffffffffffffffffffffffffffff1673ffffffffffffffffffffffffffffffffffffffff1614159050919050565b600033905090565b816004600083815260200190815260200160002060006101000a81548173ffffffffffffffffffffffffffffffffffffffff021916908373ffffffffffffffffffffffffffffffffffffffff160217905550808273ffffffffffffffffffffffffffffffffffffffff1661146483610bc0565b73ffffffffffffffffffffffffffffffffffffffff167f8c5be1e5ebec7d5bd14f71427d1e84f3dd0314c0f7b2291e5b200ac8c7c3b92560405160405180910390a45050565b60006114b58261137d565b6114f4576040517f08c379a00000000000000000000000000000000000000000000000000000000081526004016114eb90613576565b60405180910390fd5b60006114ff83610bc0565b90508073ffffffffffffffffffffffffffffffffffffffff168473ffffffffffffffffffffffffffffffffffffffff16148061156e57508373ffffffffffffffffffffffffffffffffffffffff1661155684610568565b73ffffffffffffffffffffffffffffffffffffffff16145b8061157f575061157e81856111e6565b5b91505092915050565b8273ffffffffffffffffffffffffffffffffffffffff166115a882610bc0565b73ffffffffffffffffffffffffffffffffffffffff16146115fe576040517f08c379a00000000000000000000000000000000000000000000000000000000081526004016115f590613696565b60405180910390fd5b600073ffffffffffffffffffffffffffffffffffffffff168273ffffffffffffffffffffffffffffffffffffffff16141561166e576040517f08c379a000000000000000000000000000000000000000000000000000000000815260040161166590613536565b60405180910390fd5b6116798383836120bf565b6116846000826113f1565b6001600360008573ffffffffffffffffffffffffffffffffffffffff1673ffffffffffffffffffffffffffffffffffffffff16815260200190815260200160002060008282546116d491906138cb565b925050819055506001600360008473ffffffffffffffffffffffffffffffffffffffff1673ffffffffffffffffffffffffffffffffffffffff168152602001908152602001600020600082825461172b91906137ea565b92505081905550816002600083815260200190815260200160002060006101000a81548173ffffffffffffffffffffffffffffffffffffffff021916908373ffffffffffffffffffffffffffffffffffffffff160217905550808273ffffffffffffffffffffffffffffffffffffffff168473ffffffffffffffffffffffffffffffffffffffff167fddf252ad1be2c89b69c2b068fc378daa952ba7f163c4a11628f55a4df523b3ef60405160405180910390a4505050565b6060600082141561182c576040518060400160405280600181526020017f3000000000000000000000000000000000000000000000000000000000000000815250905061198c565b600082905060005b6000821461185e578080611847906139e7565b915050600a826118579190613840565b9150611834565b60008167ffffffffffffffff8111156118a0577f4e487b7100000000000000000000000000000000000000000000000000000000600052604160045260246000fd5b6040519080825280601f01601f1916602001820160405280156118d25781602001600182028036833780820191505090505b5090505b60008514611985576001826118eb91906138cb565b9150600a856118fa9190613a30565b603061190691906137ea565b60f81b818381518110611942577f4e487b7100000000000000000000000000000000000000000000000000000000600052603260045260246000fd5b60200101907effffffffffffffffffffffffffffffffffffffffffffffffffffffffffffff1916908160001a905350600a8561197e9190613840565b94506118d6565b8093505050505b919050565b6000816040516020016119a4919061321c565b6040516020818303038152906040528051906020012060001c9050919050565b600081600001549050919050565b611a6a82826040516024016119e8929190613488565b6040516020818303038152906040527f9710a9d0000000000000000000000000000000000000000000000000000000007bffffffffffffffffffffffffffffffffffffffffffffffffffffffff19166020820180517bffffffffffffffffffffffffffffffffffffffffffffffffffffffff8381831617835250505050612096565b5050565b60606000825190506000811415611a975760405180602001604052806000815250915050611c27565b60006003600283611aa891906137ea565b611ab29190613840565b6004611abe9190613871565b90506000602082611acf91906137ea565b67ffffffffffffffff811115611b0e577f4e487b7100000000000000000000000000000000000000000000000000000000600052604160045260246000fd5b6040519080825280601f01601f191660200182016040528015611b405781602001600182028036833780820191505090505b5090506000604051806060016040528060408152602001613bb0604091399050600181016020830160005b86811015611be45760038101905062ffffff818a015116603f8160121c168401518060081b905060ff603f83600c1c1686015116810190508060081b905060ff603f8360061c1686015116810190508060081b905060ff603f831686015116810190508060e01b90508084526004840193505050611b6b565b506003860660018114611bfe5760028114611c0e57611c19565b613d3d60f01b6002830352611c19565b603d60f81b60018303525b508484525050819450505050505b919050565b611cc48282604051602401611c42929190613451565b6040516020818303038152906040527f4b5c4277000000000000000000000000000000000000000000000000000000007bffffffffffffffffffffffffffffffffffffffffffffffffffffffff19166020820180517bffffffffffffffffffffffffffffffffffffffffffffffffffffffff8381831617835250505050612096565b5050565b611ce28282604051806020016040528060008152506120c4565b5050565b611cef8261137d565b611d2e576040517f08c379a0000000000000000000000000000000000000000000000000000000008152600401611d25906135f6565b60405180910390fd5b80600660008481526020019081526020016000209080519060200190611d55929190612497565b505050565b6001816000016000828254019250508190555050565b611e0a838383604051602401611d88939291906134b8565b6040516020818303038152906040527fe3849f79000000000000000000000000000000000000000000000000000000007bffffffffffffffffffffffffffffffffffffffffffffffffffffffff19166020820180517bffffffffffffffffffffffffffffffffffffffffffffffffffffffff8381831617835250505050612096565b505050565b8173ffffffffffffffffffffffffffffffffffffffff168373ffffffffffffffffffffffffffffffffffffffff161415611e7e576040517f08c379a0000000000000000000000000000000000000000000000000000000008152600401611e7590613556565b60405180910390fd5b80600560008573ffffffffffffffffffffffffffffffffffffffff1673ffffffffffffffffffffffffffffffffffffffff16815260200190815260200160002060008473ffffffffffffffffffffffffffffffffffffffff1673ffffffffffffffffffffffffffffffffffffffff16815260200190815260200160002060006101000a81548160ff0219169083151502179055508173ffffffffffffffffffffffffffffffffffffffff168373ffffffffffffffffffffffffffffffffffffffff167f17307eab39ab6107e8899845ad3d59bd9653f200f220920489ca2b5937696c3183604051611f6f9190613414565b60405180910390a3505050565b611f87848484611588565b611f938484848461211f565b611fd2576040517f08c379a0000000000000000000000000000000000000000000000000000000008152600401611fc9906134f6565b60405180910390fd5b50505050565b606060405180602001604052806000815250905090565b6060611ffa8261137d565b612039576040517f08c379a0000000000000000000000000000000000000000000000000000000008152600401612030906136b6565b60405180910390fd5b6000612043611fd8565b90506000815111612063576040518060200160405280600081525061208e565b8061206d846117e4565b60405160200161207e929190613233565b6040516020818303038152906040525b915050919050565b60008151905060006a636f6e736f6c652e6c6f679050602083016000808483855afa5050505050565b505050565b6120ce83836122b6565b6120db600084848461211f565b61211a576040517f08c379a0000000000000000000000000000000000000000000000000000000008152600401612111906134f6565b60405180910390fd5b505050565b60006121408473ffffffffffffffffffffffffffffffffffffffff16612484565b156122a9578373ffffffffffffffffffffffffffffffffffffffff1663150b7a026121696113e9565b8786866040518563ffffffff1660e01b815260040161218b949392919061339f565b602060405180830381600087803b1580156121a557600080fd5b505af19250505080156121d657506040513d601f19601f820116820180604052508101906121d391906127db565b60015b612259573d8060008114612206576040519150601f19603f3d011682016040523d82523d6000602084013e61220b565b606091505b50600081511415612251576040517f08c379a0000000000000000000000000000000000000000000000000000000008152600401612248906134f6565b60405180910390fd5b805181602001fd5b63150b7a0260e01b7bffffffffffffffffffffffffffffffffffffffffffffffffffffffff1916817bffffffffffffffffffffffffffffffffffffffffffffffffffffffff1916149150506122ae565b600190505b949350505050565b600073ffffffffffffffffffffffffffffffffffffffff168273ffffffffffffffffffffffffffffffffffffffff161415612326576040517f08c379a000000000000000000000000000000000000000000000000000000000815260040161231d90613636565b60405180910390fd5b61232f8161137d565b1561236f576040517f08c379a000000000000000000000000000000000000000000000000000000000815260040161236690613516565b60405180910390fd5b61237b600083836120bf565b6001600360008473ffffffffffffffffffffffffffffffffffffffff1673ffffffffffffffffffffffffffffffffffffffff16815260200190815260200160002060008282546123cb91906137ea565b92505081905550816002600083815260200190815260200160002060006101000a81548173ffffffffffffffffffffffffffffffffffffffff021916908373ffffffffffffffffffffffffffffffffffffffff160217905550808273ffffffffffffffffffffffffffffffffffffffff16600073ffffffffffffffffffffffffffffffffffffffff167fddf252ad1be2c89b69c2b068fc378daa952ba7f163c4a11628f55a4df523b3ef60405160405180910390a45050565b600080823b905060008111915050919050565b8280546124a3906139b5565b90600052602060002090601f0160209004810192826124c5576000855561250c565b82601f106124de57805160ff191683800117855561250c565b8280016001018555821561250c579182015b8281111561250b5782518255916020019190600101906124f0565b5b509050612519919061251d565b5090565b5b8082111561253657600081600090555060010161251e565b5090565b600061254d61254884613762565b613731565b90508281526020810184848401111561256557600080fd5b612570848285613973565b509392505050565b60008135905061258781613b2e565b92915050565b60008135905061259c81613b45565b92915050565b6000813590506125b181613b5c565b92915050565b6000815190506125c681613b5c565b92915050565b600082601f8301126125dd57600080fd5b81356125ed84826020860161253a565b91505092915050565b60008135905061260581613b73565b92915050565b60006020828403121561261d57600080fd5b600061262b84828501612578565b91505092915050565b6000806040838503121561264757600080fd5b600061265585828601612578565b925050602061266685828601612578565b9150509250929050565b60008060006060848603121561268557600080fd5b600061269386828701612578565b93505060206126a486828701612578565b92505060406126b5868287016125f6565b9150509250925092565b600080600080608085870312156126d557600080fd5b60006126e387828801612578565b94505060206126f487828801612578565b9350506040612705878288016125f6565b925050606085013567ffffffffffffffff81111561272257600080fd5b61272e878288016125cc565b91505092959194509250565b6000806040838503121561274d57600080fd5b600061275b85828601612578565b925050602061276c8582860161258d565b9150509250929050565b6000806040838503121561278957600080fd5b600061279785828601612578565b92505060206127a8858286016125f6565b9150509250929050565b6000602082840312156127c457600080fd5b60006127d2848285016125a2565b91505092915050565b6000602082840312156127ed57600080fd5b60006127fb848285016125b7565b91505092915050565b60006020828403121561281657600080fd5b6000612824848285016125f6565b91505092915050565b612836816138ff565b82525050565b61284581613911565b82525050565b6000612856826137a7565b61286081856137bd565b9350612870818560208601613982565b61287981613b1d565b840191505092915050565b600061288f826137b2565b61289981856137ce565b93506128a9818560208601613982565b6128b281613b1d565b840191505092915050565b60006128c8826137b2565b6128d281856137df565b93506128e2818560208601613982565b80840191505092915050565b600081546128fb816139b5565b61290581866137df565b94506001821660008114612920576001811461293157612964565b60ff19831686528186019350612964565b61293a85613792565b60005b8381101561295c5781548189015260018201915060208101905061293d565b838801955050505b50505092915050565b600061297a6032836137ce565b91507f4552433732313a207472616e7366657220746f206e6f6e20455243373231526560008301527f63656976657220696d706c656d656e74657200000000000000000000000000006020830152604082019050919050565b60006129e0601c836137ce565b91507f4552433732313a20746f6b656e20616c7265616479206d696e746564000000006000830152602082019050919050565b6000612a20600a836137df565b91507f54484952445f574f5244000000000000000000000000000000000000000000006000830152600a82019050919050565b6000612a606024836137ce565b91507f4552433732313a207472616e7366657220746f20746865207a65726f2061646460008301527f72657373000000000000000000000000000000000000000000000000000000006020830152604082019050919050565b6000612ac66019836137ce565b91507f4552433732313a20617070726f766520746f2063616c6c6572000000000000006000830152602082019050919050565b6000612b066063836137df565b91507f222c20226465736372697074696f6e223a20224120686967686c79206163636c60008301527f61696d656420636f6c6c656374696f6e206f6620737175617265732e222c202260208301527f696d616765223a2022646174613a696d6167652f7376672b786d6c3b6261736560408301527f36342c00000000000000000000000000000000000000000000000000000000006060830152606382019050919050565b6000612bb8600b836137df565b91507f5345434f4e445f574f52440000000000000000000000000000000000000000006000830152600b82019050919050565b6000612bf8602c836137ce565b91507f4552433732313a206f70657261746f7220717565727920666f72206e6f6e657860008301527f697374656e7420746f6b656e00000000000000000000000000000000000000006020830152604082019050919050565b6000612c5e600d836137df565b91507f3c2f746578743e3c2f7376673e000000000000000000000000000000000000006000830152600d82019050919050565b6000612c9e6038836137ce565b91507f4552433732313a20617070726f76652063616c6c6572206973206e6f74206f7760008301527f6e6572206e6f7220617070726f76656420666f7220616c6c00000000000000006020830152604082019050919050565b6000612d04602a836137ce565b91507f4552433732313a2062616c616e636520717565727920666f7220746865207a6560008301527f726f2061646472657373000000000000000000000000000000000000000000006020830152604082019050919050565b6000612d6a6029836137ce565b91507f4552433732313a206f776e657220717565727920666f72206e6f6e657869737460008301527f656e7420746f6b656e00000000000000000000000000000000000000000000006020830152604082019050919050565b6000612dd0602e836137ce565b91507f45524337323155524953746f726167653a2055524920736574206f66206e6f6e60008301527f6578697374656e7420746f6b656e0000000000000000000000000000000000006020830152604082019050919050565b6000612e366015836137ce565b91507f4d696e74696e67206c696d6974207265616368656400000000000000000000006000830152602082019050919050565b6000612e766002836137df565b91507f227d0000000000000000000000000000000000000000000000000000000000006000830152600282019050919050565b6000612eb66020836137ce565b91507f4552433732313a206d696e7420746f20746865207a65726f20616464726573736000830152602082019050919050565b6000612ef66031836137ce565b91507f45524337323155524953746f726167653a2055524920717565727920666f722060008301527f6e6f6e6578697374656e7420746f6b656e0000000000000000000000000000006020830152604082019050919050565b6000612f5c602c836137ce565b91507f4552433732313a20617070726f76656420717565727920666f72206e6f6e657860008301527f697374656e7420746f6b656e00000000000000000000000000000000000000006020830152604082019050919050565b6000612fc26029836137ce565b91507f4552433732313a207472616e73666572206f6620746f6b656e2074686174206960008301527f73206e6f74206f776e00000000000000000000000000000000000000000000006020830152604082019050919050565b6000613028602f836137ce565b91507f4552433732314d657461646174613a2055524920717565727920666f72206e6f60008301527f6e6578697374656e7420746f6b656e00000000000000000000000000000000006020830152604082019050919050565b600061308e600a836137df565b91507f7b226e616d65223a2022000000000000000000000000000000000000000000006000830152600a82019050919050565b60006130ce6021836137ce565b91507f4552433732313a20617070726f76616c20746f2063757272656e74206f776e6560008301527f72000000000000000000000000000000000000000000000000000000000000006020830152604082019050919050565b6000613134600a836137df565b91507f46495253545f574f5244000000000000000000000000000000000000000000006000830152600a82019050919050565b6000613174601d836137df565b91507f646174613a6170706c69636174696f6e2f6a736f6e3b6261736536342c0000006000830152601d82019050919050565b60006131b46031836137ce565b91507f4552433732313a207472616e736665722063616c6c6572206973206e6f74206f60008301527f776e6572206e6f7220617070726f7665640000000000000000000000000000006020830152604082019050919050565b61321681613969565b82525050565b600061322882846128bd565b915081905092915050565b600061323f82856128bd565b915061324b82846128bd565b91508190509392505050565b600061326382866128bd565b915061326f82856128bd565b915061327b82846128bd565b9150819050949350505050565b600061329482856128ee565b91506132a082846128bd565b91506132ab82612c51565b91508190509392505050565b60006132c282612a13565b91506132ce82846128bd565b915081905092915050565b60006132e482612bab565b91506132f082846128bd565b915081905092915050565b600061330682613081565b915061331282856128bd565b915061331d82612af9565b915061332982846128bd565b915061333482612e69565b91508190509392505050565b600061334b82613127565b915061335782846128bd565b915081905092915050565b600061336d82613167565b915061337982846128bd565b915081905092915050565b6000602082019050613399600083018461282d565b92915050565b60006080820190506133b4600083018761282d565b6133c1602083018661282d565b6133ce604083018561320d565b81810360608301526133e0818461284b565b905095945050505050565b6000604082019050613400600083018561282d565b61340d602083018461320d565b9392505050565b6000602082019050613429600083018461283c565b92915050565b600060208201905081810360008301526134498184612884565b905092915050565b6000604082019050818103600083015261346b8185612884565b9050818103602083015261347f8184612884565b90509392505050565b600060408201905081810360008301526134a28185612884565b90506134b1602083018461320d565b9392505050565b600060608201905081810360008301526134d28186612884565b90506134e1602083018561320d565b6134ee604083018461282d565b949350505050565b6000602082019050818103600083015261350f8161296d565b9050919050565b6000602082019050818103600083015261352f816129d3565b9050919050565b6000602082019050818103600083015261354f81612a53565b9050919050565b6000602082019050818103600083015261356f81612ab9565b9050919050565b6000602082019050818103600083015261358f81612beb565b9050919050565b600060208201905081810360008301526135af81612c91565b9050919050565b600060208201905081810360008301526135cf81612cf7565b9050919050565b600060208201905081810360008301526135ef81612d5d565b9050919050565b6000602082019050818103600083015261360f81612dc3565b9050919050565b6000602082019050818103600083015261362f81612e29565b9050919050565b6000602082019050818103600083015261364f81612ea9565b9050919050565b6000602082019050818103600083015261366f81612ee9565b9050919050565b6000602082019050818103600083015261368f81612f4f565b9050919050565b600060208201905081810360008301526136af81612fb5565b9050919050565b600060208201905081810360008301526136cf8161301b565b9050919050565b600060208201905081810360008301526136ef816130c1565b9050919050565b6000602082019050818103600083015261370f816131a7565b9050919050565b600060208201905061372b600083018461320d565b92915050565b6000604051905081810181811067ffffffffffffffff8211171561375857613757613aee565b5b8060405250919050565b600067ffffffffffffffff82111561377d5761377c613aee565b5b601f19601f8301169050602081019050919050565b60008190508160005260206000209050919050565b600081519050919050565b600081519050919050565b600082825260208201905092915050565b600082825260208201905092915050565b600081905092915050565b60006137f582613969565b915061380083613969565b9250827fffffffffffffffffffffffffffffffffffffffffffffffffffffffffffffffff0382111561383557613834613a61565b5b828201905092915050565b600061384b82613969565b915061385683613969565b92508261386657613865613a90565b5b828204905092915050565b600061387c82613969565b915061388783613969565b9250817fffffffffffffffffffffffffffffffffffffffffffffffffffffffffffffffff04831182151516156138c0576138bf613a61565b5b828202905092915050565b60006138d682613969565b91506138e183613969565b9250828210156138f4576138f3613a61565b5b828203905092915050565b600061390a82613949565b9050919050565b60008115159050919050565b60007fffffffff0000000000000000000000000000000000000000000000000000000082169050919050565b600073ffffffffffffffffffffffffffffffffffffffff82169050919050565b6000819050919050565b82818337600083830152505050565b60005b838110156139a0578082015181840152602081019050613985565b838111156139af576000848401525b50505050565b600060028204905060018216806139cd57607f821691505b602082108114156139e1576139e0613abf565b5b50919050565b60006139f282613969565b91507fffffffffffffffffffffffffffffffffffffffffffffffffffffffffffffffff821415613a2557613a24613a61565b5b600182019050919050565b6000613a3b82613969565b9150613a4683613969565b925082613a5657613a55613a90565b5b828206905092915050565b7f4e487b7100000000000000000000000000000000000000000000000000000000600052601160045260246000fd5b7f4e487b7100000000000000000000000000000000000000000000000000000000600052601260045260246000fd5b7f4e487b7100000000000000000000000000000000000000000000000000000000600052602260045260246000fd5b7f4e487b7100000000000000000000000000000000000000000000000000000000600052604160045260246000fd5b6000601f19601f8301169050919050565b613b37816138ff565b8114613b4257600080fd5b50565b613b4e81613911565b8114613b5957600080fd5b50565b613b658161391d565b8114613b7057600080fd5b50565b613b7c81613969565b8114613b8757600080fd5b5056fe416e204e465420772f204944202573206861732062656564206d696e74656420746f2025734142434445464748494a4b4c4d4e4f505152535455565758595a6162636465666768696a6b6c6d6e6f707172737475767778797a303132333435363738392b2fa26469706673582212200efbce8aeaa3e5fd17d4ac7d8dc43b568afe1c269c33d280596bd95249ef7c3064736f6c634300080000333c73766720786d6c6e733d27687474703a2f2f7777772e77332e6f72672f323030302f73766727207072657365727665417370656374526174696f3d27784d696e594d696e206d656574272076696577426f783d273020302033353020333530273e3c726563742077696474683d273130302527206865696768743d2731303025272f3e3c7465787420783d273530252720793d273530252720646f6d696e616e742d626173656c696e653d276d6964646c652720746578742d616e63686f723d276d6964646c6527207374796c653d2766696c6c3a236666663b666f6e742d66616d696c793a73657269663b666f6e742d73697a653a31347078273e",
  "linkReferences": {},
  "deployedLinkReferences": {}
}