{
  "_format": "hh-sol-artifact-1",
  "contractName": "BrazyNFT",
  "sourceName": "contracts/BrazyNFT.sol",
  "abi": [
    {
      "inputs": [],
      "stateMutability": "nonpayable",
      "type": "constructor"
    },
    {
      "anonymous": false,
      "inputs": [
        {
          "indexed": true,
          "internalType": "address",
          "name": "owner",
          "type": "address"
        },
        {
          "indexed": true,
          "internalType": "address",
          "name": "approved",
          "type": "address"
        },
        {
          "indexed": true,
          "internalType": "uint256",
          "name": "tokenId",
          "type": "uint256"
        }
      ],
      "name": "Approval",
      "type": "event"
    },
    {
      "anonymous": false,
      "inputs": [
        {
          "indexed": true,
          "internalType": "address",
          "name": "owner",
          "type": "address"
        },
        {
          "indexed": true,
          "internalType": "address",
          "name": "operator",
          "type": "address"
        },
        {
          "indexed": false,
          "internalType": "bool",
          "name": "approved",
          "type": "bool"
        }
      ],
      "name": "ApprovalForAll",
      "type": "event"
    },
    {
      "anonymous": false,
      "inputs": [
        {
          "indexed": false,
          "internalType": "address",
          "name": "sender",
          "type": "address"
        },
        {
          "indexed": false,
          "internalType": "uint256",
          "name": "tokenId",
          "type": "uint256"
        }
      ],
      "name": "NewEpicNFTMinted",
      "type": "event"
    },
    {
      "anonymous": false,
      "inputs": [
        {
          "indexed": true,
          "internalType": "address",
          "name": "from",
          "type": "address"
        },
        {
          "indexed": true,
          "internalType": "address",
          "name": "to",
          "type": "address"
        },
        {
          "indexed": true,
          "internalType": "uint256",
          "name": "tokenId",
          "type": "uint256"
        }
      ],
      "name": "Transfer",
      "type": "event"
    },
    {
      "inputs": [
        {
          "internalType": "address",
          "name": "to",
          "type": "address"
        },
        {
          "internalType": "uint256",
          "name": "tokenId",
          "type": "uint256"
        }
      ],
      "name": "approve",
      "outputs": [],
      "stateMutability": "nonpayable",
      "type": "function"
    },
    {
      "inputs": [
        {
          "internalType": "address",
          "name": "owner",
          "type": "address"
        }
      ],
      "name": "balanceOf",
      "outputs": [
        {
          "internalType": "uint256",
          "name": "",
          "type": "uint256"
        }
      ],
      "stateMutability": "view",
      "type": "function"
    },
    {
      "inputs": [
        {
          "internalType": "uint256",
          "name": "tokenId",
          "type": "uint256"
        }
      ],
      "name": "getApproved",
      "outputs": [
        {
          "internalType": "address",
          "name": "",
          "type": "address"
        }
      ],
      "stateMutability": "view",
      "type": "function"
    },
    {
      "inputs": [
        {
          "internalType": "address",
          "name": "owner",
          "type": "address"
        },
        {
          "internalType": "address",
          "name": "operator",
          "type": "address"
        }
      ],
      "name": "isApprovedForAll",
      "outputs": [
        {
          "internalType": "bool",
          "name": "",
          "type": "bool"
        }
      ],
      "stateMutability": "view",
      "type": "function"
    },
    {
      "inputs": [],
      "name": "makeABrazyNFT",
      "outputs": [],
      "stateMutability": "nonpayable",
      "type": "function"
    },
    {
      "inputs": [],
      "name": "name",
      "outputs": [
        {
          "internalType": "string",
          "name": "",
          "type": "string"
        }
      ],
      "stateMutability": "view",
      "type": "function"
    },
    {
      "inputs": [
        {
          "internalType": "uint256",
          "name": "tokenId",
          "type": "uint256"
        }
      ],
      "name": "ownerOf",
      "outputs": [
        {
          "internalType": "address",
          "name": "",
          "type": "address"
        }
      ],
      "stateMutability": "view",
      "type": "function"
    },
    {
      "inputs": [
        {
          "internalType": "uint256",
          "name": "tokenId",
          "type": "uint256"
        }
      ],
      "name": "pickRandomFirstWord",
      "outputs": [
        {
          "internalType": "string",
          "name": "",
          "type": "string"
        }
      ],
      "stateMutability": "view",
      "type": "function"
    },
    {
      "inputs": [
        {
          "internalType": "uint256",
          "name": "tokenId",
          "type": "uint256"
        }
      ],
      "name": "pickRandomSecondWord",
      "outputs": [
        {
          "internalType": "string",
          "name": "",
          "type": "string"
        }
      ],
      "stateMutability": "view",
      "type": "function"
    },
    {
      "inputs": [
        {
          "internalType": "uint256",
          "name": "tokenId",
          "type": "uint256"
        }
      ],
      "name": "pickRandomThirdWord",
      "outputs": [
        {
          "internalType": "string",
          "name": "",
          "type": "string"
        }
      ],
      "stateMutability": "view",
      "type": "function"
    },
    {
      "inputs": [
        {
          "internalType": "address",
          "name": "from",
          "type": "address"
        },
        {
          "internalType": "address",
          "name": "to",
          "type": "address"
        },
        {
          "internalType": "uint256",
          "name": "tokenId",
          "type": "uint256"
        }
      ],
      "name": "safeTransferFrom",
      "outputs": [],
      "stateMutability": "nonpayable",
      "type": "function"
    },
    {
      "inputs": [
        {
          "internalType": "address",
          "name": "from",
          "type": "address"
        },
        {
          "internalType": "address",
          "name": "to",
          "type": "address"
        },
        {
          "internalType": "uint256",
          "name": "tokenId",
          "type": "uint256"
        },
        {
          "internalType": "bytes",
          "name": "_data",
          "type": "bytes"
        }
      ],
      "name": "safeTransferFrom",
      "outputs": [],
      "stateMutability": "nonpayable",
      "type": "function"
    },
    {
      "inputs": [
        {
          "internalType": "address",
          "name": "operator",
          "type": "address"
        },
        {
          "internalType": "bool",
          "name": "approved",
          "type": "bool"
        }
      ],
      "name": "setApprovalForAll",
      "outputs": [],
      "stateMutability": "nonpayable",
      "type": "function"
    },
    {
      "inputs": [
        {
          "internalType": "bytes4",
          "name": "interfaceId",
          "type": "bytes4"
        }
      ],
      "name": "supportsInterface",
      "outputs": [
        {
          "internalType": "bool",
          "name": "",
          "type": "bool"
        }
      ],
      "stateMutability": "view",
      "type": "function"
    },
    {
      "inputs": [],
      "name": "symbol",
      "outputs": [
        {
          "internalType": "string",
          "name": "",
          "type": "string"
        }
      ],
      "stateMutability": "view",
      "type": "function"
    },
    {
      "inputs": [
        {
          "internalType": "uint256",
          "name": "tokenId",
          "type": "uint256"
        }
      ],
      "name": "tokenURI",
      "outputs": [
        {
          "internalType": "string",
          "name": "",
          "type": "string"
        }
      ],
      "stateMutability": "view",
      "type": "function"
    },
    {
      "inputs": [
        {
          "internalType": "address",
          "name": "from",
          "type": "address"
        },
        {
          "internalType": "address",
          "name": "to",
          "type": "address"
        },
        {
          "internalType": "uint256",
          "name": "tokenId",
          "type": "uint256"
        }
      ],
      "name": "transferFrom",
      "outputs": [],
      "stateMutability": "nonpayable",
      "type": "function"
    }
  ],
  "bytecode": "0x608060405260405180610120016040528060fd8152602001620042b160fd913960089080519060200190620000369291906200067c565b506040518060c001604052806040518060400160405280600681526020017f4e617275746f000000000000000000000000000000000000000000000000000081525081526020016040518060400160405280600781526020017f4b616b617368690000000000000000000000000000000000000000000000000081525081526020016040518060400160405280600781526020017f536f746f676c6f0000000000000000000000000000000000000000000000000081525081526020016040518060400160405280600481526020017f42696a750000000000000000000000000000000000000000000000000000000081525081526020016040518060400160405280600881526020017f54656e5461696c7300000000000000000000000000000000000000000000000081525081526020016040518060400160405280600881526020017f536561686f7273650000000000000000000000000000000000000000000000008152508152506009906006620001b49291906200070d565b506040518060c001604052806040518060400160405280600781526020017f5368616d7572690000000000000000000000000000000000000000000000000081525081526020016040518060400160405280600481526020017f53616e640000000000000000000000000000000000000000000000000000000081525081526020016040518060400160405280600481526020017f446176650000000000000000000000000000000000000000000000000000000081525081526020016040518060400160405280600681526020017f395461696c73000000000000000000000000000000000000000000000000000081525081526020016040518060400160405280600681526020017f385461696c73000000000000000000000000000000000000000000000000000081525081526020016040518060400160405280600381526020017f5754460000000000000000000000000000000000000000000000000000000000815250815250600a906006620003329291906200070d565b506040518060c001604052806040518060400160405280600881526020017f52656e696767616e00000000000000000000000000000000000000000000000081525081526020016040518060400160405280600481526020017f476f6b750000000000000000000000000000000000000000000000000000000081525081526020016040518060400160405280600681526020017f566567657461000000000000000000000000000000000000000000000000000081525081526020016040518060400160405280600781526020017f536173756c72690000000000000000000000000000000000000000000000000081525081526020016040518060400160405280600881526020017f4269616b7567616e00000000000000000000000000000000000000000000000081525081526020016040518060400160405280600881526020017f426c756545796573000000000000000000000000000000000000000000000000815250815250600b906006620004b09291906200070d565b50348015620004be57600080fd5b506040518060400160405280600681526020017f434f574e465400000000000000000000000000000000000000000000000000008152506040518060400160405280600581526020017f4d4f4f4f4f0000000000000000000000000000000000000000000000000000008152508160009080519060200190620005439291906200067c565b5080600190805190602001906200055c9291906200067c565b505050620005aa6040518060400160405280601881526020017f48656c6c6f2066726f6d20736d61727420636f6e746163740000000000000000815250620005b060201b620010f41760201c565b6200092e565b6200065081604051602401620005c7919062000842565b6040516020818303038152906040527f41304fac000000000000000000000000000000000000000000000000000000007bffffffffffffffffffffffffffffffffffffffffffffffffffffffff19166020820180517bffffffffffffffffffffffffffffffffffffffffffffffffffffffff83818316178352505050506200065360201b60201c565b50565b60008151905060006a636f6e736f6c652e6c6f679050602083016000808483855afa5050505050565b8280546200068a90620008b8565b90600052602060002090601f016020900481019282620006ae5760008555620006fa565b82601f10620006c957805160ff1916838001178555620006fa565b82800160010185558215620006fa579182015b82811115620006f9578251825591602001919060010190620006dc565b5b50905062000709919062000774565b5090565b82805482825590600052602060002090810192821562000761579160200282015b82811115620007605782518290805190602001906200074f9291906200067c565b50916020019190600101906200072e565b5b50905062000770919062000793565b5090565b5b808211156200078f57600081600090555060010162000775565b5090565b5b80821115620007b75760008181620007ad9190620007bb565b5060010162000794565b5090565b508054620007c990620008b8565b6000825580601f10620007dd5750620007fe565b601f016020900490600052602060002090810190620007fd919062000774565b5b50565b60006200080e8262000866565b6200081a818562000871565b93506200082c81856020860162000882565b62000837816200091d565b840191505092915050565b600060208201905081810360008301526200085e818462000801565b905092915050565b600081519050919050565b600082825260208201905092915050565b60005b83811015620008a257808201518184015260208101905062000885565b83811115620008b2576000848401525b50505050565b60006002820490506001821680620008d157607f821691505b60208210811415620008e857620008e7620008ee565b5b50919050565b7f4e487b7100000000000000000000000000000000000000000000000000000000600052602260045260246000fd5b6000601f19601f8301169050919050565b613973806200093e6000396000f3fe608060405234801561001057600080fd5b506004361061010b5760003560e01c80636352211e116100a2578063b187301f11610071578063b187301f146102b6578063b88d4fde146102e6578063c575757a14610302578063c87b56dd14610332578063e985e9c5146103625761010b565b80636352211e1461021c57806370a082311461024c57806395d89b411461027c578063a22cb4651461029a5761010b565b806323b872dd116100de57806323b872dd146101aa5780632de38d68146101c657806342842e0e146101f65780635754ba49146102125761010b565b806301ffc9a71461011057806306fdde0314610140578063081812fc1461015e578063095ea7b31461018e575b600080fd5b61012a60048036038101906101259190612590565b610392565b60405161013791906131b2565b60405180910390f35b610148610474565b60405161015591906131cd565b60405180910390f35b610178600480360381019061017391906125e2565b610506565b6040516101859190613122565b60405180910390f35b6101a860048036038101906101a39190612554565b61058b565b005b6101c460048036038101906101bf919061244e565b6106a3565b005b6101e060048036038101906101db91906125e2565b610703565b6040516101ed91906131cd565b60405180910390f35b610210600480360381019061020b919061244e565b610821565b005b61021a610841565b005b610236600480360381019061023191906125e2565b610a5e565b6040516102439190613122565b60405180910390f35b610266600480360381019061026191906123e9565b610b10565b6040516102739190613464565b60405180910390f35b610284610bc8565b60405161029191906131cd565b60405180910390f35b6102b460048036038101906102af9190612518565b610c5a565b005b6102d060048036038101906102cb91906125e2565b610c70565b6040516102dd91906131cd565b60405180910390f35b61030060048036038101906102fb919061249d565b610d8e565b005b61031c600480360381019061031791906125e2565b610df0565b60405161032991906131cd565b60405180910390f35b61034c600480360381019061034791906125e2565b610f0e565b60405161035991906131cd565b60405180910390f35b61037c60048036038101906103779190612412565b611060565b60405161038991906131b2565b60405180910390f35b60007f80ac58cd000000000000000000000000000000000000000000000000000000007bffffffffffffffffffffffffffffffffffffffffffffffffffffffff1916827bffffffffffffffffffffffffffffffffffffffffffffffffffffffff1916148061045d57507f5b5e139f000000000000000000000000000000000000000000000000000000007bffffffffffffffffffffffffffffffffffffffffffffffffffffffff1916827bffffffffffffffffffffffffffffffffffffffffffffffffffffffff1916145b8061046d575061046c8261118d565b5b9050919050565b60606000805461048390613703565b80601f01602080910402602001604051908101604052809291908181526020018280546104af90613703565b80156104fc5780601f106104d1576101008083540402835291602001916104fc565b820191906000526020600020905b8154815290600101906020018083116104df57829003601f168201915b5050505050905090565b6000610511826111f7565b610550576040517f08c379a0000000000000000000000000000000000000000000000000000000008152600401610547906133c4565b60405180910390fd5b6004600083815260200190815260200160002060009054906101000a900473ffffffffffffffffffffffffffffffffffffffff169050919050565b600061059682610a5e565b90508073ffffffffffffffffffffffffffffffffffffffff168373ffffffffffffffffffffffffffffffffffffffff161415610607576040517f08c379a00000000000000000000000000000000000000000000000000000000081526004016105fe90613424565b60405180910390fd5b8073ffffffffffffffffffffffffffffffffffffffff16610626611263565b73ffffffffffffffffffffffffffffffffffffffff16148061065557506106548161064f611263565b611060565b5b610694576040517f08c379a000000000000000000000000000000000000000000000000000000000815260040161068b90613304565b60405180910390fd5b61069e838361126b565b505050565b6106b46106ae611263565b82611324565b6106f3576040517f08c379a00000000000000000000000000000000000000000000000000000000081526004016106ea90613444565b60405180910390fd5b6106fe838383611402565b505050565b606060006107376107138461165e565b60405160200161072391906130de565b60405160208183030381529060405261180b565b90506009805490508161074a919061377e565b905060098181548110610786577f4e487b7100000000000000000000000000000000000000000000000000000000600052603260045260246000fd5b90600052602060002001805461079b90613703565b80601f01602080910402602001604051908101604052809291908181526020018280546107c790613703565b80156108145780601f106107e957610100808354040283529160200191610814565b820191906000526020600020905b8154815290600101906020018083116107f757829003601f168201915b5050505050915050919050565b61083c83838360405180602001604052806000815250610d8e565b505050565b600061084d600761183e565b9050600061085a82610703565b9050600061086783610c70565b9050600061087484610df0565b9050600083838360405160200161088d93929190612ff5565b604051602081830303815290604052905060006008826040516020016108b4929190613026565b604051602081830303815290604052905060006108f9836108d48461184c565b6040516020016108e5929190613099565b60405160208183030381529060405261184c565b905060008160405160200161090e9190613100565b604051602081830303815290604052905061095d6040518060400160405280601381526020017f6e2d2d2d2d2d2d2d2d2d2d2d2d2d2d2d2d2d2d000000000000000000000000008152506110f4565b61099c6040518060400160405280600e81526020017f66696e616c546f6b656e5572693a00000000000000000000000000000000000081525082611a0a565b6109da6040518060400160405280601481526020017f2d2d2d2d2d2d2d2d2d2d2d2d2d2d2d2d2d2d2d0a0000000000000000000000008152506110f4565b6109e43389611aa6565b6109ee8882611ac4565b6109f86007611b38565b610a1b6040518060600160405280602581526020016138d9602591398933611b4e565b7febb98688741ffa4c7589bf325de30cf7becb63de567842e1ccdb6cb949fdc82c3389604051610a4c929190613189565b60405180910390a15050505050505050565b6000806002600084815260200190815260200160002060009054906101000a900473ffffffffffffffffffffffffffffffffffffffff169050600073ffffffffffffffffffffffffffffffffffffffff168173ffffffffffffffffffffffffffffffffffffffff161415610b07576040517f08c379a0000000000000000000000000000000000000000000000000000000008152600401610afe90613344565b60405180910390fd5b80915050919050565b60008073ffffffffffffffffffffffffffffffffffffffff168273ffffffffffffffffffffffffffffffffffffffff161415610b81576040517f08c379a0000000000000000000000000000000000000000000000000000000008152600401610b7890613324565b60405180910390fd5b600360008373ffffffffffffffffffffffffffffffffffffffff1673ffffffffffffffffffffffffffffffffffffffff168152602001908152602001600020549050919050565b606060018054610bd790613703565b80601f0160208091040260200160405190810160405280929190818152602001828054610c0390613703565b8015610c505780601f10610c2557610100808354040283529160200191610c50565b820191906000526020600020905b815481529060010190602001808311610c3357829003601f168201915b5050505050905090565b610c6c610c65611263565b8383611bed565b5050565b60606000610ca4610c808461165e565b604051602001610c909190613077565b60405160208183030381529060405261180b565b9050600a8054905081610cb7919061377e565b9050600a8181548110610cf3577f4e487b7100000000000000000000000000000000000000000000000000000000600052603260045260246000fd5b906000526020600020018054610d0890613703565b80601f0160208091040260200160405190810160405280929190818152602001828054610d3490613703565b8015610d815780601f10610d5657610100808354040283529160200191610d81565b820191906000526020600020905b815481529060010190602001808311610d6457829003601f168201915b5050505050915050919050565b610d9f610d99611263565b83611324565b610dde576040517f08c379a0000000000000000000000000000000000000000000000000000000008152600401610dd590613444565b60405180910390fd5b610dea84848484611d5a565b50505050565b60606000610e24610e008461165e565b604051602001610e109190613055565b60405160208183030381529060405261180b565b9050600b8054905081610e37919061377e565b9050600b8181548110610e73577f4e487b7100000000000000000000000000000000000000000000000000000000600052603260045260246000fd5b906000526020600020018054610e8890613703565b80601f0160208091040260200160405190810160405280929190818152602001828054610eb490613703565b8015610f015780601f10610ed657610100808354040283529160200191610f01565b820191906000526020600020905b815481529060010190602001808311610ee457829003601f168201915b5050505050915050919050565b6060610f19826111f7565b610f58576040517f08c379a0000000000000000000000000000000000000000000000000000000008152600401610f4f906133a4565b60405180910390fd5b6000600660008481526020019081526020016000208054610f7890613703565b80601f0160208091040260200160405190810160405280929190818152602001828054610fa490613703565b8015610ff15780601f10610fc657610100808354040283529160200191610ff1565b820191906000526020600020905b815481529060010190602001808311610fd457829003601f168201915b505050505090506000611002611db6565b905060008151141561101857819250505061105b565b60008251111561104d578082604051602001611035929190612fd1565b6040516020818303038152906040529250505061105b565b61105684611dcd565b925050505b919050565b6000600560008473ffffffffffffffffffffffffffffffffffffffff1673ffffffffffffffffffffffffffffffffffffffff16815260200190815260200160002060008373ffffffffffffffffffffffffffffffffffffffff1673ffffffffffffffffffffffffffffffffffffffff16815260200190815260200160002060009054906101000a900460ff16905092915050565b61118a8160405160240161110891906131cd565b6040516020818303038152906040527f41304fac000000000000000000000000000000000000000000000000000000007bffffffffffffffffffffffffffffffffffffffffffffffffffffffff19166020820180517bffffffffffffffffffffffffffffffffffffffffffffffffffffffff8381831617835250505050611e74565b50565b60007f01ffc9a7000000000000000000000000000000000000000000000000000000007bffffffffffffffffffffffffffffffffffffffffffffffffffffffff1916827bffffffffffffffffffffffffffffffffffffffffffffffffffffffff1916149050919050565b60008073ffffffffffffffffffffffffffffffffffffffff166002600084815260200190815260200160002060009054906101000a900473ffffffffffffffffffffffffffffffffffffffff1673ffffffffffffffffffffffffffffffffffffffff1614159050919050565b600033905090565b816004600083815260200190815260200160002060006101000a81548173ffffffffffffffffffffffffffffffffffffffff021916908373ffffffffffffffffffffffffffffffffffffffff160217905550808273ffffffffffffffffffffffffffffffffffffffff166112de83610a5e565b73ffffffffffffffffffffffffffffffffffffffff167f8c5be1e5ebec7d5bd14f71427d1e84f3dd0314c0f7b2291e5b200ac8c7c3b92560405160405180910390a45050565b600061132f826111f7565b61136e576040517f08c379a0000000000000000000000000000000000000000000000000000000008152600401611365906132e4565b60405180910390fd5b600061137983610a5e565b90508073ffffffffffffffffffffffffffffffffffffffff168473ffffffffffffffffffffffffffffffffffffffff1614806113e857508373ffffffffffffffffffffffffffffffffffffffff166113d084610506565b73ffffffffffffffffffffffffffffffffffffffff16145b806113f957506113f88185611060565b5b91505092915050565b8273ffffffffffffffffffffffffffffffffffffffff1661142282610a5e565b73ffffffffffffffffffffffffffffffffffffffff1614611478576040517f08c379a000000000000000000000000000000000000000000000000000000000815260040161146f906133e4565b60405180910390fd5b600073ffffffffffffffffffffffffffffffffffffffff168273ffffffffffffffffffffffffffffffffffffffff1614156114e8576040517f08c379a00000000000000000000000000000000000000000000000000000000081526004016114df906132a4565b60405180910390fd5b6114f3838383611e9d565b6114fe60008261126b565b6001600360008573ffffffffffffffffffffffffffffffffffffffff1673ffffffffffffffffffffffffffffffffffffffff168152602001908152602001600020600082825461154e9190613619565b925050819055506001600360008473ffffffffffffffffffffffffffffffffffffffff1673ffffffffffffffffffffffffffffffffffffffff16815260200190815260200160002060008282546115a59190613538565b92505081905550816002600083815260200190815260200160002060006101000a81548173ffffffffffffffffffffffffffffffffffffffff021916908373ffffffffffffffffffffffffffffffffffffffff160217905550808273ffffffffffffffffffffffffffffffffffffffff168473ffffffffffffffffffffffffffffffffffffffff167fddf252ad1be2c89b69c2b068fc378daa952ba7f163c4a11628f55a4df523b3ef60405160405180910390a4505050565b606060008214156116a6576040518060400160405280600181526020017f30000000000000000000000000000000000000000000000000000000000000008152509050611806565b600082905060005b600082146116d85780806116c190613735565b915050600a826116d1919061358e565b91506116ae565b60008167ffffffffffffffff81111561171a577f4e487b7100000000000000000000000000000000000000000000000000000000600052604160045260246000fd5b6040519080825280601f01601f19166020018201604052801561174c5781602001600182028036833780820191505090505b5090505b600085146117ff576001826117659190613619565b9150600a85611774919061377e565b60306117809190613538565b60f81b8183815181106117bc577f4e487b7100000000000000000000000000000000000000000000000000000000600052603260045260246000fd5b60200101907effffffffffffffffffffffffffffffffffffffffffffffffffffffffffffff1916908160001a905350600a856117f8919061358e565b9450611750565b8093505050505b919050565b60008160405160200161181e9190612fba565b6040516020818303038152906040528051906020012060001c9050919050565b600081600001549050919050565b606060008251905060008114156118755760405180602001604052806000815250915050611a05565b600060036002836118869190613538565b611890919061358e565b600461189c91906135bf565b905060006020826118ad9190613538565b67ffffffffffffffff8111156118ec577f4e487b7100000000000000000000000000000000000000000000000000000000600052604160045260246000fd5b6040519080825280601f01601f19166020018201604052801561191e5781602001600182028036833780820191505090505b50905060006040518060600160405280604081526020016138fe604091399050600181016020830160005b868110156119c25760038101905062ffffff818a015116603f8160121c168401518060081b905060ff603f83600c1c1686015116810190508060081b905060ff603f8360061c1686015116810190508060081b905060ff603f831686015116810190508060e01b90508084526004840193505050611949565b5060038606600181146119dc57600281146119ec576119f7565b613d3d60f01b60028303526119f7565b603d60f81b60018303525b508484525050819450505050505b919050565b611aa28282604051602401611a209291906131ef565b6040516020818303038152906040527f4b5c4277000000000000000000000000000000000000000000000000000000007bffffffffffffffffffffffffffffffffffffffffffffffffffffffff19166020820180517bffffffffffffffffffffffffffffffffffffffffffffffffffffffff8381831617835250505050611e74565b5050565b611ac0828260405180602001604052806000815250611ea2565b5050565b611acd826111f7565b611b0c576040517f08c379a0000000000000000000000000000000000000000000000000000000008152600401611b0390613364565b60405180910390fd5b80600660008481526020019081526020016000209080519060200190611b33929190612275565b505050565b6001816000016000828254019250508190555050565b611be8838383604051602401611b6693929190613226565b6040516020818303038152906040527fe3849f79000000000000000000000000000000000000000000000000000000007bffffffffffffffffffffffffffffffffffffffffffffffffffffffff19166020820180517bffffffffffffffffffffffffffffffffffffffffffffffffffffffff8381831617835250505050611e74565b505050565b8173ffffffffffffffffffffffffffffffffffffffff168373ffffffffffffffffffffffffffffffffffffffff161415611c5c576040517f08c379a0000000000000000000000000000000000000000000000000000000008152600401611c53906132c4565b60405180910390fd5b80600560008573ffffffffffffffffffffffffffffffffffffffff1673ffffffffffffffffffffffffffffffffffffffff16815260200190815260200160002060008473ffffffffffffffffffffffffffffffffffffffff1673ffffffffffffffffffffffffffffffffffffffff16815260200190815260200160002060006101000a81548160ff0219169083151502179055508173ffffffffffffffffffffffffffffffffffffffff168373ffffffffffffffffffffffffffffffffffffffff167f17307eab39ab6107e8899845ad3d59bd9653f200f220920489ca2b5937696c3183604051611d4d91906131b2565b60405180910390a3505050565b611d65848484611402565b611d7184848484611efd565b611db0576040517f08c379a0000000000000000000000000000000000000000000000000000000008152600401611da790613264565b60405180910390fd5b50505050565b606060405180602001604052806000815250905090565b6060611dd8826111f7565b611e17576040517f08c379a0000000000000000000000000000000000000000000000000000000008152600401611e0e90613404565b60405180910390fd5b6000611e21611db6565b90506000815111611e415760405180602001604052806000815250611e6c565b80611e4b8461165e565b604051602001611e5c929190612fd1565b6040516020818303038152906040525b915050919050565b60008151905060006a636f6e736f6c652e6c6f679050602083016000808483855afa5050505050565b505050565b611eac8383612094565b611eb96000848484611efd565b611ef8576040517f08c379a0000000000000000000000000000000000000000000000000000000008152600401611eef90613264565b60405180910390fd5b505050565b6000611f1e8473ffffffffffffffffffffffffffffffffffffffff16612262565b15612087578373ffffffffffffffffffffffffffffffffffffffff1663150b7a02611f47611263565b8786866040518563ffffffff1660e01b8152600401611f69949392919061313d565b602060405180830381600087803b158015611f8357600080fd5b505af1925050508015611fb457506040513d601f19601f82011682018060405250810190611fb191906125b9565b60015b612037573d8060008114611fe4576040519150601f19603f3d011682016040523d82523d6000602084013e611fe9565b606091505b5060008151141561202f576040517f08c379a000000000000000000000000000000000000000000000000000000000815260040161202690613264565b60405180910390fd5b805181602001fd5b63150b7a0260e01b7bffffffffffffffffffffffffffffffffffffffffffffffffffffffff1916817bffffffffffffffffffffffffffffffffffffffffffffffffffffffff19161491505061208c565b600190505b949350505050565b600073ffffffffffffffffffffffffffffffffffffffff168273ffffffffffffffffffffffffffffffffffffffff161415612104576040517f08c379a00000000000000000000000000000000000000000000000000000000081526004016120fb90613384565b60405180910390fd5b61210d816111f7565b1561214d576040517f08c379a000000000000000000000000000000000000000000000000000000000815260040161214490613284565b60405180910390fd5b61215960008383611e9d565b6001600360008473ffffffffffffffffffffffffffffffffffffffff1673ffffffffffffffffffffffffffffffffffffffff16815260200190815260200160002060008282546121a99190613538565b92505081905550816002600083815260200190815260200160002060006101000a81548173ffffffffffffffffffffffffffffffffffffffff021916908373ffffffffffffffffffffffffffffffffffffffff160217905550808273ffffffffffffffffffffffffffffffffffffffff16600073ffffffffffffffffffffffffffffffffffffffff167fddf252ad1be2c89b69c2b068fc378daa952ba7f163c4a11628f55a4df523b3ef60405160405180910390a45050565b600080823b905060008111915050919050565b82805461228190613703565b90600052602060002090601f0160209004810192826122a357600085556122ea565b82601f106122bc57805160ff19168380011785556122ea565b828001600101855582156122ea579182015b828111156122e95782518255916020019190600101906122ce565b5b5090506122f791906122fb565b5090565b5b808211156123145760008160009055506001016122fc565b5090565b600061232b612326846134b0565b61347f565b90508281526020810184848401111561234357600080fd5b61234e8482856136c1565b509392505050565b6000813590506123658161387c565b92915050565b60008135905061237a81613893565b92915050565b60008135905061238f816138aa565b92915050565b6000815190506123a4816138aa565b92915050565b600082601f8301126123bb57600080fd5b81356123cb848260208601612318565b91505092915050565b6000813590506123e3816138c1565b92915050565b6000602082840312156123fb57600080fd5b600061240984828501612356565b91505092915050565b6000806040838503121561242557600080fd5b600061243385828601612356565b925050602061244485828601612356565b9150509250929050565b60008060006060848603121561246357600080fd5b600061247186828701612356565b935050602061248286828701612356565b9250506040612493868287016123d4565b9150509250925092565b600080600080608085870312156124b357600080fd5b60006124c187828801612356565b94505060206124d287828801612356565b93505060406124e3878288016123d4565b925050606085013567ffffffffffffffff81111561250057600080fd5b61250c878288016123aa565b91505092959194509250565b6000806040838503121561252b57600080fd5b600061253985828601612356565b925050602061254a8582860161236b565b9150509250929050565b6000806040838503121561256757600080fd5b600061257585828601612356565b9250506020612586858286016123d4565b9150509250929050565b6000602082840312156125a257600080fd5b60006125b084828501612380565b91505092915050565b6000602082840312156125cb57600080fd5b60006125d984828501612395565b91505092915050565b6000602082840312156125f457600080fd5b6000612602848285016123d4565b91505092915050565b6126148161364d565b82525050565b6126238161365f565b82525050565b6000612634826134f5565b61263e818561350b565b935061264e8185602086016136d0565b6126578161386b565b840191505092915050565b600061266d82613500565b612677818561351c565b93506126878185602086016136d0565b6126908161386b565b840191505092915050565b60006126a682613500565b6126b0818561352d565b93506126c08185602086016136d0565b80840191505092915050565b600081546126d981613703565b6126e3818661352d565b945060018216600081146126fe576001811461270f57612742565b60ff19831686528186019350612742565b612718856134e0565b60005b8381101561273a5781548189015260018201915060208101905061271b565b838801955050505b50505092915050565b600061275860328361351c565b91507f4552433732313a207472616e7366657220746f206e6f6e20455243373231526560008301527f63656976657220696d706c656d656e74657200000000000000000000000000006020830152604082019050919050565b60006127be601c8361351c565b91507f4552433732313a20746f6b656e20616c7265616479206d696e746564000000006000830152602082019050919050565b60006127fe600a8361352d565b91507f54484952445f574f5244000000000000000000000000000000000000000000006000830152600a82019050919050565b600061283e60248361351c565b91507f4552433732313a207472616e7366657220746f20746865207a65726f2061646460008301527f72657373000000000000000000000000000000000000000000000000000000006020830152604082019050919050565b60006128a460198361351c565b91507f4552433732313a20617070726f766520746f2063616c6c6572000000000000006000830152602082019050919050565b60006128e460638361352d565b91507f222c20226465736372697074696f6e223a20224120686967686c79206163636c60008301527f61696d656420636f6c6c656374696f6e206f6620737175617265732e222c202260208301527f696d616765223a2022646174613a696d6167652f7376672b786d6c3b6261736560408301527f36342c00000000000000000000000000000000000000000000000000000000006060830152606382019050919050565b6000612996600b8361352d565b91507f5345434f4e445f574f52440000000000000000000000000000000000000000006000830152600b82019050919050565b60006129d6602c8361351c565b91507f4552433732313a206f70657261746f7220717565727920666f72206e6f6e657860008301527f697374656e7420746f6b656e00000000000000000000000000000000000000006020830152604082019050919050565b6000612a3c600d8361352d565b91507f3c2f746578743e3c2f7376673e000000000000000000000000000000000000006000830152600d82019050919050565b6000612a7c60388361351c565b91507f4552433732313a20617070726f76652063616c6c6572206973206e6f74206f7760008301527f6e6572206e6f7220617070726f76656420666f7220616c6c00000000000000006020830152604082019050919050565b6000612ae2602a8361351c565b91507f4552433732313a2062616c616e636520717565727920666f7220746865207a6560008301527f726f2061646472657373000000000000000000000000000000000000000000006020830152604082019050919050565b6000612b4860298361351c565b91507f4552433732313a206f776e657220717565727920666f72206e6f6e657869737460008301527f656e7420746f6b656e00000000000000000000000000000000000000000000006020830152604082019050919050565b6000612bae602e8361351c565b91507f45524337323155524953746f726167653a2055524920736574206f66206e6f6e60008301527f6578697374656e7420746f6b656e0000000000000000000000000000000000006020830152604082019050919050565b6000612c1460028361352d565b91507f227d0000000000000000000000000000000000000000000000000000000000006000830152600282019050919050565b6000612c5460208361351c565b91507f4552433732313a206d696e7420746f20746865207a65726f20616464726573736000830152602082019050919050565b6000612c9460318361351c565b91507f45524337323155524953746f726167653a2055524920717565727920666f722060008301527f6e6f6e6578697374656e7420746f6b656e0000000000000000000000000000006020830152604082019050919050565b6000612cfa602c8361351c565b91507f4552433732313a20617070726f76656420717565727920666f72206e6f6e657860008301527f697374656e7420746f6b656e00000000000000000000000000000000000000006020830152604082019050919050565b6000612d6060298361351c565b91507f4552433732313a207472616e73666572206f6620746f6b656e2074686174206960008301527f73206e6f74206f776e00000000000000000000000000000000000000000000006020830152604082019050919050565b6000612dc6602f8361351c565b91507f4552433732314d657461646174613a2055524920717565727920666f72206e6f60008301527f6e6578697374656e7420746f6b656e00000000000000000000000000000000006020830152604082019050919050565b6000612e2c600a8361352d565b91507f7b226e616d65223a2022000000000000000000000000000000000000000000006000830152600a82019050919050565b6000612e6c60218361351c565b91507f4552433732313a20617070726f76616c20746f2063757272656e74206f776e6560008301527f72000000000000000000000000000000000000000000000000000000000000006020830152604082019050919050565b6000612ed2600a8361352d565b91507f46495253545f574f5244000000000000000000000000000000000000000000006000830152600a82019050919050565b6000612f12601d8361352d565b91507f646174613a6170706c69636174696f6e2f6a736f6e3b6261736536342c0000006000830152601d82019050919050565b6000612f5260318361351c565b91507f4552433732313a207472616e736665722063616c6c6572206973206e6f74206f60008301527f776e6572206e6f7220617070726f7665640000000000000000000000000000006020830152604082019050919050565b612fb4816136b7565b82525050565b6000612fc6828461269b565b915081905092915050565b6000612fdd828561269b565b9150612fe9828461269b565b91508190509392505050565b6000613001828661269b565b915061300d828561269b565b9150613019828461269b565b9150819050949350505050565b600061303282856126cc565b915061303e828461269b565b915061304982612a2f565b91508190509392505050565b6000613060826127f1565b915061306c828461269b565b915081905092915050565b600061308282612989565b915061308e828461269b565b915081905092915050565b60006130a482612e1f565b91506130b0828561269b565b91506130bb826128d7565b91506130c7828461269b565b91506130d282612c07565b91508190509392505050565b60006130e982612ec5565b91506130f5828461269b565b915081905092915050565b600061310b82612f05565b9150613117828461269b565b915081905092915050565b6000602082019050613137600083018461260b565b92915050565b6000608082019050613152600083018761260b565b61315f602083018661260b565b61316c6040830185612fab565b818103606083015261317e8184612629565b905095945050505050565b600060408201905061319e600083018561260b565b6131ab6020830184612fab565b9392505050565b60006020820190506131c7600083018461261a565b92915050565b600060208201905081810360008301526131e78184612662565b905092915050565b600060408201905081810360008301526132098185612662565b9050818103602083015261321d8184612662565b90509392505050565b600060608201905081810360008301526132408186612662565b905061324f6020830185612fab565b61325c604083018461260b565b949350505050565b6000602082019050818103600083015261327d8161274b565b9050919050565b6000602082019050818103600083015261329d816127b1565b9050919050565b600060208201905081810360008301526132bd81612831565b9050919050565b600060208201905081810360008301526132dd81612897565b9050919050565b600060208201905081810360008301526132fd816129c9565b9050919050565b6000602082019050818103600083015261331d81612a6f565b9050919050565b6000602082019050818103600083015261333d81612ad5565b9050919050565b6000602082019050818103600083015261335d81612b3b565b9050919050565b6000602082019050818103600083015261337d81612ba1565b9050919050565b6000602082019050818103600083015261339d81612c47565b9050919050565b600060208201905081810360008301526133bd81612c87565b9050919050565b600060208201905081810360008301526133dd81612ced565b9050919050565b600060208201905081810360008301526133fd81612d53565b9050919050565b6000602082019050818103600083015261341d81612db9565b9050919050565b6000602082019050818103600083015261343d81612e5f565b9050919050565b6000602082019050818103600083015261345d81612f45565b9050919050565b60006020820190506134796000830184612fab565b92915050565b6000604051905081810181811067ffffffffffffffff821117156134a6576134a561383c565b5b8060405250919050565b600067ffffffffffffffff8211156134cb576134ca61383c565b5b601f19601f8301169050602081019050919050565b60008190508160005260206000209050919050565b600081519050919050565b600081519050919050565b600082825260208201905092915050565b600082825260208201905092915050565b600081905092915050565b6000613543826136b7565b915061354e836136b7565b9250827fffffffffffffffffffffffffffffffffffffffffffffffffffffffffffffffff03821115613583576135826137af565b5b828201905092915050565b6000613599826136b7565b91506135a4836136b7565b9250826135b4576135b36137de565b5b828204905092915050565b60006135ca826136b7565b91506135d5836136b7565b9250817fffffffffffffffffffffffffffffffffffffffffffffffffffffffffffffffff048311821515161561360e5761360d6137af565b5b828202905092915050565b6000613624826136b7565b915061362f836136b7565b925082821015613642576136416137af565b5b828203905092915050565b600061365882613697565b9050919050565b60008115159050919050565b60007fffffffff0000000000000000000000000000000000000000000000000000000082169050919050565b600073ffffffffffffffffffffffffffffffffffffffff82169050919050565b6000819050919050565b82818337600083830152505050565b60005b838110156136ee5780820151818401526020810190506136d3565b838111156136fd576000848401525b50505050565b6000600282049050600182168061371b57607f821691505b6020821081141561372f5761372e61380d565b5b50919050565b6000613740826136b7565b91507fffffffffffffffffffffffffffffffffffffffffffffffffffffffffffffffff821415613773576137726137af565b5b600182019050919050565b6000613789826136b7565b9150613794836136b7565b9250826137a4576137a36137de565b5b828206905092915050565b7f4e487b7100000000000000000000000000000000000000000000000000000000600052601160045260246000fd5b7f4e487b7100000000000000000000000000000000000000000000000000000000600052601260045260246000fd5b7f4e487b7100000000000000000000000000000000000000000000000000000000600052602260045260246000fd5b7f4e487b7100000000000000000000000000000000000000000000000000000000600052604160045260246000fd5b6000601f19601f8301169050919050565b6138858161364d565b811461389057600080fd5b50565b61389c8161365f565b81146138a757600080fd5b50565b6138b38161366b565b81146138be57600080fd5b50565b6138ca816136b7565b81146138d557600080fd5b5056fe416e204e465420772f204944202573206861732062656564206d696e74656420746f2025734142434445464748494a4b4c4d4e4f505152535455565758595a6162636465666768696a6b6c6d6e6f707172737475767778797a303132333435363738392b2fa2646970667358221220add3c725d2c2cfbd37d69580901fdff6628b64172ec2f9920d2f2b72407c8ff764736f6c634300080000333c73766720786d6c6e733d27687474703a2f2f7777772e77332e6f72672f323030302f73766727207072657365727665417370656374526174696f3d27784d696e594d696e206d656574272076696577426f783d273020302033353020333530273e3c726563742077696474683d273130302527206865696768743d2731303025272f3e3c7465787420783d273530252720793d273530252720646f6d696e616e742d626173656c696e653d276d6964646c652720746578742d616e63686f723d276d6964646c6527207374796c653d2766696c6c3a236666663b666f6e742d66616d696c793a73657269663b666f6e742d73697a653a31347078273e",
  "linkReferences": {},
  "deployedLinkReferences": {}
}